{
  "_format": "hh-sol-artifact-1",
  "contractName": "StakingPoolTest",
  "sourceName": "contracts/test/StakingPoolTest.sol",
  "abi": [
    {
      "inputs": [
        {
          "internalType": "address",
          "name": "stakingAsset_",
          "type": "address"
        },
        {
          "internalType": "address",
          "name": "rewardAsset_",
          "type": "address"
        }
      ],
      "stateMutability": "nonpayable",
      "type": "constructor"
    },
    {
      "inputs": [],
      "name": "InvaidAmount",
      "type": "error"
    },
    {
      "inputs": [
        {
          "internalType": "uint256",
          "name": "principal",
          "type": "uint256"
        }
      ],
      "name": "NotEnoughPrincipal",
      "type": "error"
    },
    {
      "inputs": [],
      "name": "NotInRound",
      "type": "error"
    },
    {
      "inputs": [
        {
          "internalType": "uint8",
          "name": "round",
          "type": "uint8"
        },
        {
          "internalType": "uint8",
          "name": "currentRound",
          "type": "uint8"
        }
      ],
      "name": "NotInitiatedRound",
      "type": "error"
    },
    {
      "inputs": [],
      "name": "OnlyAdmin",
      "type": "error"
    },
    {
      "inputs": [],
      "name": "RoundConflicted",
      "type": "error"
    },
    {
      "inputs": [],
      "name": "StakingNotInitiated",
      "type": "error"
    },
    {
      "inputs": [],
      "name": "ZeroPrincipal",
      "type": "error"
    },
    {
      "inputs": [],
      "name": "ZeroReward",
      "type": "error"
    },
    {
      "anonymous": false,
      "inputs": [
        {
          "indexed": true,
          "internalType": "address",
          "name": "user",
          "type": "address"
        },
        {
          "indexed": false,
          "internalType": "uint256",
          "name": "reward",
          "type": "uint256"
        },
        {
          "indexed": false,
          "internalType": "uint256",
          "name": "rewardLeft",
          "type": "uint256"
        },
        {
          "indexed": false,
          "internalType": "uint8",
          "name": "currentRound",
          "type": "uint8"
        }
      ],
      "name": "Claim",
      "type": "event"
    },
    {
      "anonymous": false,
      "inputs": [
        {
          "indexed": false,
          "internalType": "uint256",
          "name": "rewardPerSecond",
          "type": "uint256"
        },
        {
          "indexed": false,
          "internalType": "uint256",
          "name": "startTimestamp",
          "type": "uint256"
        },
        {
          "indexed": false,
          "internalType": "uint256",
          "name": "endTimestamp",
          "type": "uint256"
        },
        {
          "indexed": false,
          "internalType": "uint256",
          "name": "currentRound",
          "type": "uint256"
        }
      ],
      "name": "InitRound",
      "type": "event"
    },
    {
      "anonymous": false,
      "inputs": [
        {
          "indexed": false,
          "internalType": "address",
          "name": "user",
          "type": "address"
        },
        {
          "indexed": false,
          "internalType": "uint256",
          "name": "amount",
          "type": "uint256"
        },
        {
          "indexed": false,
          "internalType": "uint8",
          "name": "migrateRound",
          "type": "uint8"
        },
        {
          "indexed": false,
          "internalType": "uint8",
          "name": "currentRound",
          "type": "uint8"
        }
      ],
      "name": "Migrate",
      "type": "event"
    },
    {
      "anonymous": false,
      "inputs": [
        {
          "indexed": true,
          "internalType": "address",
          "name": "user",
          "type": "address"
        },
        {
          "indexed": false,
          "internalType": "uint256",
          "name": "amount",
          "type": "uint256"
        },
        {
          "indexed": false,
          "internalType": "uint256",
          "name": "userIndex",
          "type": "uint256"
        },
        {
          "indexed": false,
          "internalType": "uint256",
          "name": "userPrincipal",
          "type": "uint256"
        },
        {
          "indexed": false,
          "internalType": "uint8",
          "name": "currentRound",
          "type": "uint8"
        }
      ],
      "name": "Stake",
      "type": "event"
    },
    {
      "anonymous": false,
      "inputs": [
        {
          "indexed": true,
          "internalType": "address",
          "name": "user",
          "type": "address"
        },
        {
          "indexed": false,
          "internalType": "uint256",
          "name": "amount",
          "type": "uint256"
        },
        {
          "indexed": false,
          "internalType": "uint256",
          "name": "userIndex",
          "type": "uint256"
        },
        {
          "indexed": false,
          "internalType": "uint256",
          "name": "userPrincipal",
          "type": "uint256"
        },
        {
          "indexed": false,
          "internalType": "uint8",
          "name": "currentRound",
          "type": "uint8"
        }
      ],
      "name": "Withdraw",
      "type": "event"
    },
    {
      "inputs": [
        {
          "internalType": "uint8",
          "name": "round",
          "type": "uint8"
        }
      ],
      "name": "claim",
      "outputs": [],
      "stateMutability": "nonpayable",
      "type": "function"
    },
    {
      "inputs": [],
      "name": "currentRound",
      "outputs": [
        {
          "internalType": "uint8",
          "name": "",
          "type": "uint8"
        }
      ],
      "stateMutability": "view",
      "type": "function"
    },
    {
      "inputs": [
        {
          "internalType": "uint8",
          "name": "round",
          "type": "uint8"
        }
      ],
      "name": "getPoolData",
      "outputs": [
        {
          "internalType": "uint256",
          "name": "rewardPerSecond",
          "type": "uint256"
        },
        {
          "internalType": "uint256",
          "name": "rewardIndex",
          "type": "uint256"
        },
        {
          "internalType": "uint256",
          "name": "startTimestamp",
          "type": "uint256"
        },
        {
          "internalType": "uint256",
          "name": "endTimestamp",
          "type": "uint256"
        },
        {
          "internalType": "uint256",
          "name": "totalPrincipal",
          "type": "uint256"
        },
        {
          "internalType": "uint256",
          "name": "lastUpdateTimestamp",
          "type": "uint256"
        }
      ],
      "stateMutability": "view",
      "type": "function"
    },
    {
      "inputs": [
        {
          "internalType": "uint8",
          "name": "round",
          "type": "uint8"
        }
      ],
      "name": "getRewardIndex",
      "outputs": [
        {
          "internalType": "uint256",
          "name": "",
          "type": "uint256"
        }
      ],
      "stateMutability": "view",
      "type": "function"
    },
    {
      "inputs": [
        {
          "internalType": "uint8",
          "name": "round",
          "type": "uint8"
        },
        {
          "internalType": "address",
          "name": "user",
          "type": "address"
        }
      ],
      "name": "getUserData",
      "outputs": [
        {
          "internalType": "uint256",
          "name": "userIndex",
          "type": "uint256"
        },
        {
          "internalType": "uint256",
          "name": "userReward",
          "type": "uint256"
        },
        {
          "internalType": "uint256",
          "name": "userPrincipal",
          "type": "uint256"
        }
      ],
      "stateMutability": "view",
      "type": "function"
    },
    {
      "inputs": [
        {
          "internalType": "address",
          "name": "user",
          "type": "address"
        },
        {
          "internalType": "uint8",
          "name": "round",
          "type": "uint8"
        }
      ],
      "name": "getUserReward",
      "outputs": [
        {
          "internalType": "uint256",
          "name": "",
          "type": "uint256"
        }
      ],
      "stateMutability": "view",
      "type": "function"
    },
    {
      "inputs": [
        {
          "internalType": "uint256",
          "name": "rewardPerSecond",
          "type": "uint256"
        },
        {
          "internalType": "uint16",
          "name": "year",
          "type": "uint16"
        },
        {
          "internalType": "uint8",
          "name": "month",
          "type": "uint8"
        },
        {
          "internalType": "uint8",
          "name": "day",
          "type": "uint8"
        },
        {
          "internalType": "uint8",
          "name": "duration",
          "type": "uint8"
        }
      ],
      "name": "initNewRound",
      "outputs": [],
      "stateMutability": "nonpayable",
      "type": "function"
    },
    {
      "inputs": [
        {
          "internalType": "uint256",
          "name": "rewardPerSecond",
          "type": "uint256"
        },
        {
          "internalType": "uint16",
          "name": "year",
          "type": "uint16"
        },
        {
          "internalType": "uint8",
          "name": "month",
          "type": "uint8"
        },
        {
          "internalType": "uint8",
          "name": "day",
          "type": "uint8"
        },
        {
          "internalType": "uint8",
          "name": "hour",
          "type": "uint8"
        },
        {
          "internalType": "uint8",
          "name": "minute",
          "type": "uint8"
        },
        {
          "internalType": "uint8",
          "name": "duration",
          "type": "uint8"
        }
      ],
      "name": "initNewRound",
      "outputs": [],
      "stateMutability": "nonpayable",
      "type": "function"
    },
    {
      "inputs": [
        {
          "internalType": "uint256",
          "name": "amount",
          "type": "uint256"
        },
        {
          "internalType": "uint8",
          "name": "round",
          "type": "uint8"
        }
      ],
      "name": "migrate",
      "outputs": [],
      "stateMutability": "nonpayable",
      "type": "function"
    },
    {
      "inputs": [],
      "name": "retrieveResidue",
      "outputs": [],
      "stateMutability": "nonpayable",
      "type": "function"
    },
    {
      "inputs": [],
      "name": "rewardAsset",
      "outputs": [
        {
          "internalType": "contract IERC20",
          "name": "",
          "type": "address"
        }
      ],
      "stateMutability": "view",
      "type": "function"
    },
    {
      "inputs": [
        {
          "internalType": "uint256",
          "name": "amount",
          "type": "uint256"
        }
      ],
      "name": "stake",
      "outputs": [],
      "stateMutability": "nonpayable",
      "type": "function"
    },
    {
      "inputs": [],
      "name": "stakingAsset",
      "outputs": [
        {
          "internalType": "contract IERC20",
          "name": "",
          "type": "address"
        }
      ],
      "stateMutability": "view",
      "type": "function"
    },
    {
      "inputs": [
        {
          "internalType": "uint256",
          "name": "amount",
          "type": "uint256"
        },
        {
          "internalType": "uint8",
          "name": "round",
          "type": "uint8"
        }
      ],
      "name": "withdraw",
      "outputs": [],
      "stateMutability": "nonpayable",
      "type": "function"
    }
  ],
  "bytecode": "0x60806040523480156200001157600080fd5b50604051620019863803806200198683398101604081905262000034916200009b565b600180546001600160a01b03199081166001600160a01b0394851617909155600280549091169190921617905560008054610100600160a81b0319166101003302179055620000d2565b80516001600160a01b03811681146200009657600080fd5b919050565b60008060408385031215620000ae578182fd5b620000b9836200007e565b9150620000c9602084016200007e565b90509250929050565b6118a480620000e26000396000f3fe608060405234801561001057600080fd5b50600436106100ea5760003560e01c8063903d42961161008c578063aa1f627c11610066578063aa1f627c146102a6578063b711c5bc146102b9578063be04ffd9146102c1578063edab62f5146102d457600080fd5b8063903d42961461026d57806395d4063f14610280578063a694fc3a1461029357600080fd5b80634255a1c2116100c85780634255a1c2146102055780634574ecff1461021a5780637776768f1461023b5780638a19c8bc1461024e57600080fd5b80630ac6702a146100ef5780631b3bd5271461011f5780633b09d3b514610194575b600080fd5b600254610102906001600160a01b031681565b6040516001600160a01b0390911681526020015b60405180910390f35b61016761012d366004611649565b60ff166000908152600360208190526040909120805460018201546002830154938301546004840154600590940154929591949390929091565b604080519687526020870195909552938501929092526060840152608083015260a082015260c001610116565b6101ea6101a2366004611663565b60ff9190911660009081526003602090815260408083206001600160a01b03909416835260068401825280832054600785018352818420546008909501909252909120549092565b60408051938452602084019290925290820152606001610116565b61021861021336600461154c565b6102e7565b005b61022d6102283660046114ca565b610400565b604051908152602001610116565b600154610102906001600160a01b031681565b60005461025b9060ff1681565b60405160ff9091168152602001610116565b61021861027b366004611627565b610426565b61021861028e366004611649565b610434565b6102186102a136600461151c565b610441565b6102186102b43660046115a9565b61059e565b6102186106a4565b61022d6102cf366004611649565b610772565b6102186102e2366004611627565b610794565b60005461010090046001600160a01b0316331461031757604051634755657960e01b815260040160405180910390fd5b6000805460ff16815260036020526040812090610337868686600a6109ae565b9050816003015481101561035e5760405163d2b3b7e960e01b815260040160405180910390fd5b600080546103709060ff1660016116f3565b60ff81166000908152600360205260408120919250908190610394908b86896109c8565b6000805460ff191660ff8716908117909155604080518e815260208101859052908101839052606081019190915291935091507f332ab8cb2abb1a5c0619be13c533c05a84279ef1d2d78814f594f39df59122419060800160405180910390a150505050505050505050565b60ff8116600090815260036020526040812061041c8185610a1f565b9150505b92915050565b6104308282610ada565b5050565b61043e3382610c5e565b50565b6000805460ff168082526003602052604090912090610473576040516350f7da1560e11b815260040160405180910390fd5b42816003015410806104885750428160020154115b156104a657604051636a67d54960e01b815260040160405180910390fd5b816104c4576040516315ad0dc760e21b815260040160405180910390fd5b6000546104d690829060ff1633610dfb565b6001546104ee906001600160a01b0316333085610ebc565b3360009081526008820160205260408120805484929061050f9084906116db565b925050819055508181600401600082825461052a91906116db565b90915550503360008181526006830160209081526040808320546008860183528184205493548251888152938401919091529082019290925260ff90911660608201527f9a2358088aa909a8c4d7b59a65c916782d62ee73d14b851be57582ed69e3ccb09060800160405180910390a25050565b60005461010090046001600160a01b031633146105ce57604051634755657960e01b815260040160405180910390fd5b6000805460ff168152600360205260408120906105ee8888888888610f2d565b60008054919250906106049060ff1660016116f3565b60ff81166000908152600360205260408120919250908190610628908d86896109c8565b6000805460ff871660ff1990911681179091556040519294509092507f332ab8cb2abb1a5c0619be13c533c05a84279ef1d2d78814f594f39df59122419161068e918f91869186919384526020840192909252604083015260ff16606082015260800190565b60405180910390a1505050505050505050505050565b60005461010090046001600160a01b031633146106d457604051634755657960e01b815260040160405180910390fd5b6000546002546040516370a0823160e01b81523060048201526107709261010090046001600160a01b039081169216906370a082319060240160206040518083038186803b15801561072557600080fd5b505afa158015610739573d6000803e3d6000fd5b505050506040513d601f19601f8201168201806040525081019061075d9190611534565b6002546001600160a01b03169190610f3e565b565b60ff8116600090815260036020526040812061078d81610f73565b9392505050565b60005460ff908116908216106107d3576000546040516365d621ed60e01b815260ff808416600483015290911660248201526044015b60405180910390fd5b60ff8116600090815260036020908152604080832033845260088101909252909120548061081457604051630b3eb09f60e21b815260040160405180910390fd5b60006108208583611799565b905061082c8333610a1f565b1561083b5761083b3385610c5e565b801561084b5761084b8185610ada565b6000805460ff16808252600360205260409091209061086c90829033610dfb565b3360009081526008850160205260408120805488929061088d908490611799565b9091555050336000908152600882016020526040812080548892906108b39084906116db565b92505081905550858460040160008282546108ce9190611799565b92505081905550858160040160008282546108e991906116db565b909155505033600081815260068301602090815260408083205460088601835281842054935482518c8152938401919091529082019290925260ff90911660608201527f9a2358088aa909a8c4d7b59a65c916782d62ee73d14b851be57582ed69e3ccb09060800160405180910390a2600054604080513381526020810189905260ff888116828401529092166060830152517f546af5173ec580ce2f8eb21d6efbe16430d69c880c6d83a5f455b9f4022843ad9181900360800190a1505050505050565b60006109bf85858585600080611004565b95945050505050565b828455600284018290556000806109e560ff84166201518061172c565b6109f49062ffffff16856116db565b6003870181905560058701949094555050670de0b6b3a7640000600185015550600290920154929050565b6001600160a01b0381166000908152600683016020526040812054610a4657506000610420565b6001600160a01b0382166000908152600684016020526040812054610a6a85610f73565b610a749190611799565b6001600160a01b0384166000908152600886016020526040812054919250633b9aca00610aa18484611757565b610aab9190611718565b6001600160a01b0386166000908152600788016020526040902054610ad091906116db565b9695505050505050565b60ff808216600081815260036020526040812090549092161015610b22576000546040516365d621ed60e01b815260ff808516600483015290911660248201526044016107ca565b82600019811415610b4157503360009081526008820160205260409020545b336000908152600883016020526040902054811115610b8a573360009081526008830160205260409081902054905163cebd519360e01b815260048101919091526024016107ca565b610b95828433610dfb565b33600090815260088301602052604081208054839290610bb6908490611799565b9250508190555080826004016000828254610bd19190611799565b9091555050600154610bed906001600160a01b03163383610f3e565b3360008181526006840160209081526040808320546008870183528184205493548251878152938401919091529082019290925260ff90911660608201527f66ecb22c263001ecfe4aecc5a075cfbc877869d3fab02728b0f8bfb8b08bf6d19060800160405180910390a250505050565b60005460ff9081169082161115610c99576000546040516365d621ed60e01b815260ff808416600483015290911660248201526044016107ca565b60ff8116600090815260036020526040812090610cb68285610a1f565b905080610cd657604051632706c9e160e21b815260040160405180910390fd5b6001600160a01b0384166000908152600783016020526040812055610cfa82610f73565b6001600160a01b038086166000908152600685016020526040902091909155600254610d2891168583610f3e565b6002546040516370a0823160e01b81523060048201526000916001600160a01b0316906370a082319060240160206040518083038186803b158015610d6c57600080fd5b505afa158015610d80573d6000803e3d6000fd5b505050506040513d601f19601f82011682018060405250810190610da49190611534565b604080518481526020810183905260ff87168183015290519192506001600160a01b038716917fae4ef7abdb28a08e41e77990def7c7d8d3f4133e8838005bc1a49fe137dbfcfa9181900360600190a25050505050565b610e058382610a1f565b6001600160a01b0382166000908152600785016020526040902055610e2983610f73565b6001600160a01b03821660009081526006850160205260409020819055600184015560038301544210610e60578260030154610e62565b425b60058401556001830154600484015460408051928352602083019190915260ff84169082015233907f7994e9f3b8680cde12b3d4f603192419ae0154049b1c5cc3157262c90ab4f9239060600160405180910390a2505050565b6040516001600160a01b0380851660248301528316604482015260648101829052610f279085906323b872dd60e01b906084015b60408051601f198184030181529190526020810180516001600160e01b03166001600160e01b0319909316929092179091526111c3565b50505050565b6000610ad086868686866000611004565b6040516001600160a01b038316602482015260448101829052610f6e90849063a9059cbb60e01b90606401610ef0565b505050565b60008082600301544210610f8b578260030154610f8d565b425b90506000836005015482610fa19190611799565b600485015490915081610fb957505050506001015490565b80610fc957505050506001015490565b84546000908290610fda9085611757565b610fe890633b9aca00611757565b610ff29190611718565b9050808660010154610ad091906116db565b60006107b25b8761ffff168161ffff1610156110605761102381611295565b1561103d576110366301e28500836116db565b915061104e565b61104b6301e13380836116db565b91505b80611058816117ff565b91505061100a565b61106861146c565b601f815261107589611295565b1561108657601d602082015261108e565b601c60208201525b601f60408201819052601e606083018190526080830182905260a0830181905260c0830182905260e0830182905261010083018190526101208301829052610140830152610160820152600191505b8760ff168261ffff16101561114d57806110f8600184611776565b61ffff16600c811061111a57634e487b7160e01b600052603260045260246000fd5b602002015161112f9060ff1662015180611757565b61113990846116db565b925081611145816117ff565b9250506110dd565b6111586001886117b0565b6111689060ff1662015180611757565b61117290846116db565b925061118360ff8716610e10611757565b61118d90846116db565b925061119d60ff8616603c611757565b6111a790846116db565b92506111b660ff8516846116db565b9998505050505050505050565b6000611218826040518060400160405280602081526020017f5361666545524332303a206c6f772d6c6576656c2063616c6c206661696c6564815250856001600160a01b03166112f49092919063ffffffff16565b805190915015610f6e578080602001905181019061123691906114fc565b610f6e5760405162461bcd60e51b815260206004820152602a60248201527f5361666545524332303a204552433230206f7065726174696f6e20646964206e6044820152691bdd081cdd58d8d9595960b21b60648201526084016107ca565b60006112a2600483611821565b61ffff16156112b357506000919050565b6112be606483611821565b61ffff16156112cf57506001919050565b6112db61019083611821565b61ffff16156112ec57506000919050565b506001919050565b6060611303848460008561130b565b949350505050565b60608247101561136c5760405162461bcd60e51b815260206004820152602660248201527f416464726573733a20696e73756666696369656e742062616c616e636520666f6044820152651c8818d85b1b60d21b60648201526084016107ca565b843b6113ba5760405162461bcd60e51b815260206004820152601d60248201527f416464726573733a2063616c6c20746f206e6f6e2d636f6e747261637400000060448201526064016107ca565b600080866001600160a01b031685876040516113d6919061168c565b60006040518083038185875af1925050503d8060008114611413576040519150601f19603f3d011682016040523d82523d6000602084013e611418565b606091505b5091509150611428828286611433565b979650505050505050565b6060831561144257508161078d565b8251156114525782518084602001fd5b8160405162461bcd60e51b81526004016107ca91906116a8565b604051806101800160405280600c906020820280368337509192915050565b80356001600160a01b03811681146114a257600080fd5b919050565b803561ffff811681146114a257600080fd5b803560ff811681146114a257600080fd5b600080604083850312156114dc578182fd5b6114e58361148b565b91506114f3602084016114b9565b90509250929050565b60006020828403121561150d578081fd5b8151801515811461078d578182fd5b60006020828403121561152d578081fd5b5035919050565b600060208284031215611545578081fd5b5051919050565b600080600080600060a08688031215611563578081fd5b85359450611573602087016114a7565b9350611581604087016114b9565b925061158f606087016114b9565b915061159d608087016114b9565b90509295509295909350565b600080600080600080600060e0888a0312156115c3578182fd5b873596506115d3602089016114a7565b95506115e1604089016114b9565b94506115ef606089016114b9565b93506115fd608089016114b9565b925061160b60a089016114b9565b915061161960c089016114b9565b905092959891949750929550565b60008060408385031215611639578182fd5b823591506114f3602084016114b9565b60006020828403121561165a578081fd5b61078d826114b9565b60008060408385031215611675578182fd5b61167e836114b9565b91506114f36020840161148b565b6000825161169e8184602087016117d3565b9190910192915050565b60208152600082518060208401526116c78160408501602087016117d3565b601f01601f19169190910160400192915050565b600082198211156116ee576116ee611842565b500190565b600060ff821660ff84168060ff0382111561171057611710611842565b019392505050565b60008261172757611727611858565b500490565b600062ffffff8083168185168183048111821515161561174e5761174e611842565b02949350505050565b600081600019048311821515161561177157611771611842565b500290565b600061ffff8381169083168181101561179157611791611842565b039392505050565b6000828210156117ab576117ab611842565b500390565b600060ff821660ff8416808210156117ca576117ca611842565b90039392505050565b60005b838110156117ee5781810151838201526020016117d6565b83811115610f275750506000910152565b600061ffff8083168181141561181757611817611842565b6001019392505050565b600061ffff8084168061183657611836611858565b92169190910692915050565b634e487b7160e01b600052601160045260246000fd5b634e487b7160e01b600052601260045260246000fdfea2646970667358221220ce28beb23030de37bee90b3fe1ce4214ffba7eb4db280ba5e5b10f87bac75e4264736f6c63430008040033",
  "linkReferences": {},
  "deployedLinkReferences": {}
}